:04000000CBEF0AF048
:10100000003738392F3435362A3132332D23303DED
:101010002B00010E306E28502910D8B412EF08F0C2
:1010200014EF08F034EF08F028C0D9FF29C0DAFF28
:10103000DF50070B2A6E050E2A6021EF08F023EF20
:1010400008F034EF08F028C0D9FF29C0DAFFDF30FC
:10105000E832E832070B2A6E070E2A6432EF08F0F6
:1010600034EF08F097EF08F0000E306EB8EF08F09C
:1010700028C0D9FF29C0DAFFDF30E832E832070B99
:101080002A6E010E2B6E2A2A48EF08F0D8902B36D4
:101090002A2E46EF08F02B50FF0A2C6E28C0D9FFED
:1010A00029C0DAFFDF50070B2D6E2D50020D150EF3
:1010B000F324D96E000EF420DA6EDECF2EF0DDCFF1
:1010C0002FF02EC0D9FF2FC0DAFF2C50DF16B8EF5B
:1010D00008F028C0D9FF29C0DAFFDF30E832E83253
:1010E000070B2A6E010E2B6E2A2A79EF08F0D89092
:1010F0002B362A2E77EF08F028C0D9FF29C0DAFF57
:10110000DF50070B2C6E2C50020D150EF324D96EF8
:10111000000EF420DA6EDECF2DF0DDCF2EF02DC0E4
:10112000D9FF2EC0DAFF2B50DF12B8EF08F028C02D
:10113000D9FF29C0DAFFDFBCA0EF08F0A3EF08F069
:10114000010EA4EF08F0000E2A6E2B6A2B50000A45
:10115000D8B4ADEF08F034EF08F02A50000AD8B444
:1011600038EF08F0010AD8B469EF08F034EF08F05E
:1011700030501200010E316E28502910D8B4C3EF40
:1011800008F0C5EF08F0E5EF08F028C0D9FF29C046
:10119000DAFFDF50070B2B6E050E2B60D2EF08F045
:1011A000D4EF08F0E5EF08F028C0D9FF29C0DAFF36
:1011B000DF30E832E832070B2B6E070E2B64E3EFCB
:1011C00008F0E5EF08F048EF09F0000E316E5DEF32
:1011D00009F028C0D9FF29C0DAFFDF30E832E83251
:1011E000070B2B6E010E2C6E2B2AF9EF08F0D8900E
:1011F0002C362B2EF7EF08F02C50FF0A2D6E28C04E
:10120000D9FF29C0DAFFDF50070B2E6E2E50020DDA
:101210000B0EF324D96E000EF420DA6EDECF2FF021
:10122000DDCF30F02FC0D9FF30C0DAFF2D50DF16F0
:101230005DEF09F028C0D9FF29C0DAFFDF30E832BE
:10124000E832070B2B6E010E2C6E2B2A2AEF09F0C9
:10125000D8902C362B2E28EF09F028C0D9FF29C0B2
:10126000DAFFDF50070B2D6E2D50020D0B0EF3240D
:10127000D96E000EF420DA6EDECF2EF0DDCF2FF027
:101280002EC0D9FF2FC0DAFF2C50DF125DEF09F01E
:101290002A502B6E2C6A2C50000AD8B452EF09F059
:1012A000E5EF08F02B50000AD8B4E9EF08F0010A86
:1012B000D8B41AEF09F0E5EF08F031501200010E32
:1012C0003B6E040E386E040E396E040E3A6E000E3C
:1012D0003D6E32503310D8A470EF09F072EF09F070
:1012E00076EF09F0000E3B6EE7EF09F0000E3E6E60
:1012F000DEEF09F0000E3C6E89EF09F03C5032241D
:10130000286E000E3320296E000E2A6EBAEC08F00B
:101310003C2A39503C5CD8A090EF09F092EF09F0DC
:101320007EEF09F03E503224286E000E3320296EE5
:10133000010E2A6EBAEC08F03B6E000E3F6ED4EF41
:1013400009F03F503224366E000E3320376E040E03
:101350003624286E000E3720296E3D0E2A6E000EB0
:101360002B6E60EC0AF03B6E3D04D8A4BAEF09F096
:10137000BCEF09F0D3EF09F03E50040D010EF32449
:10138000366E100EF420376E3F503626000E372290
:1013900036C0F6FF37C0F7FF34C0D9FF35C0DAFFDB
:1013A0000800F5CFDFFF3F2A3A503F5CD8A0DBEFC3
:1013B00009F0DDEF09F0A1EF09F03E2A38503E5C5C
:1013C000D8A0E5EF09F0E7EF09F07AEF09F03B501C
:1013D0001200010E3A6E040E386E040E396E325051
:1013E0003310D8A4F6EF09F0F8EF09F0FCEF09F09C
:1013F000000E3A6E5EEF0AF0000E3B6E1BEF0AF035
:101400003B503224286E000E3320296E09EC08F080
:101410003B503224286E000E3320296E3B5032247C
:10142000D96E000E3320DA6E000EDFBE010E2A6E7A
:10143000BAEC08F03B2A38503B5CD8A022EF0AF007
:1014400024EF0AF000EF0AF0000E3C6E55EF0AF0B0
:101450003C503224346E000E3320356E040E34249A
:10146000286E000E3520296E09EC08F03C5032241D
:10147000346E000E3320356E040E3424286E000EB8
:101480003520296E3C503224366E000E3320376EE4
:10149000040E3624D96E000E3720DA6E000EDFBE41
:1014A000010E2A6EBAEC08F03C2A39503C5CD8A0F8
:1014B0005CEF0AF05EEF0AF028EF0AF03A501200F3
:1014C000010E316E28502910D8B469EF0AF06BEF85
:1014D0000AF094EF0AF02A502B10D8B472EF0AF0F9
:1014E00074EF0AF094EF0AF028C0D9FF29C0DAFFA0
:1014F000DF50070B2C6E050E2C6081EF0AF083EF96
:101500000AF094EF0AF028C0D9FF29C0DAFFDF30D3
:10151000E832E832070B2C6E070E2C6492EF0AF0CB
:1015200094EF0AF098EF0AF0000E316EC9EF0AF05E
:1015300028C0D9FF29C0DAFFDF30E832E832070BD4
:101540002C6E28C0D9FF29C0DAFFDF50070B2D6EA3
:101550002D50020D010EF324D96E000EF420DA6E28
:10156000DECF2EF0DDCF2FF02EC0D9FF2FC0DAFF57
:10157000DF50306E2C2ABFEF0AF0D89030322C2E7C
:10158000BDEF0AF03050010B2AC0D9FF2BC0DAFFA3
:10159000DF6E31501200CC0EF66E150EF76E000E97
:1015A000F86E00EE01F010EE27F00900F5CFEEFF27
:1015B000E550E150FAE100EE40F0100EEE6AE80668
:1015C000FDE1000EF86E0001FAEF0AF0800F810FC6
:1015D000820F830F840F890F8A0F8B0F8C0F8D0F53
:1015E000920F930F940F950F960F01020A121A6231
:0315F0006A727AA2
:1015F4000BEC0BF0200E326E000E336E4F0E346E79
:10160400000E356E5FEC09F01F6EFCEF0AF000EF80
:1016140000F0200E326E000E336EE9EC09F01F6EFE
:021624001200B2
:020000040020DA
:08000000FFFFFFFFFFFFFFFF00
:020000040030CA
:0E000000FF02091EFF8381FF0FC00FE00F40BB
:00000001FF
